{
  "_format": "hh-sol-artifact-1",
  "contractName": "WhistleBox",
  "sourceName": "contracts/WhistleBox.sol",
  "abi": [
    {
      "inputs": [],
      "stateMutability": "nonpayable",
      "type": "constructor"
    },
    {
      "inputs": [],
      "name": "getAllTips",
      "outputs": [
        {
          "internalType": "string[]",
          "name": "",
          "type": "string[]"
        }
      ],
      "stateMutability": "view",
      "type": "function"
    },
    {
      "inputs": [
        {
          "internalType": "string",
          "name": "_tip",
          "type": "string"
        }
      ],
      "name": "whistle",
      "outputs": [],
      "stateMutability": "nonpayable",
      "type": "function"
    }
  ],
  "bytecode": "0x60806040523480156200001157600080fd5b50620000416040518060a001604052806067815260200162000d21606791396200004760201b620003821760201c565b620001db565b620000e7816040516024016200005e919062000154565b6040516020818303038152906040527f41304fac000000000000000000000000000000000000000000000000000000007bffffffffffffffffffffffffffffffffffffffffffffffffffffffff19166020820180517bffffffffffffffffffffffffffffffffffffffffffffffffffffffff8381831617835250505050620000ea60201b60201c565b50565b60008151905060006a636f6e736f6c652e6c6f679050602083016000808483855afa5050505050565b6000620001208262000178565b6200012c818562000183565b93506200013e81856020860162000194565b6200014981620001ca565b840191505092915050565b6000602082019050818103600083015262000170818462000113565b905092915050565b600081519050919050565b600082825260208201905092915050565b60005b83811015620001b457808201518184015260208101905062000197565b83811115620001c4576000848401525b50505050565b6000601f19601f8301169050919050565b610b3680620001eb6000396000f3fe608060405234801561001057600080fd5b50600436106100365760003560e01c806339804be91461003b578063399ddbbd14610057575b600080fd5b61005560048036038101906100509190610708565b610075565b005b61005f61013b565b60405161006c9190610866565b60405180910390f35b60008282909180600181540180825580915050600190039060005260206000200160009091929091929091929091925091906100b292919061061b565b506101376040518060400160405280601081526020017f2573207265706f727465642027257327000000000000000000000000000000008152503384848080601f016020809104026020016040519081016040528093929190818152602001838380828437600081840152601f19601f8201169050808301925050505050505061041b565b5050565b60606101816040518060400160405280601681526020017f5765206861766520256420746f74616c207469707321000000000000000000008152506000805490506104ba565b6000808054905011156102ab576102aa6040518060400160405280601b81526020017f546865206d6f737420726563656e74206f6e6520697320272573270000000000815250600060016000805490506101db91906109bc565b81548110610212577f4e487b7100000000000000000000000000000000000000000000000000000000600052603260045260246000fd5b90600052602060002001805461022790610a5f565b80601f016020809104026020016040519081016040528092919081815260200182805461025390610a5f565b80156102a05780601f10610275576101008083540402835291602001916102a0565b820191906000526020600020905b81548152906001019060200180831161028357829003601f168201915b5050505050610556565b5b6000805480602002602001604051908101604052809291908181526020016000905b828210156103795783829060005260206000200180546102ec90610a5f565b80601f016020809104026020016040519081016040528092919081815260200182805461031890610a5f565b80156103655780601f1061033a57610100808354040283529160200191610365565b820191906000526020600020905b81548152906001019060200180831161034857829003601f168201915b5050505050815260200190600101906102cd565b50505050905090565b610418816040516024016103969190610888565b6040516020818303038152906040527f41304fac000000000000000000000000000000000000000000000000000000007bffffffffffffffffffffffffffffffffffffffffffffffffffffffff19166020820180517bffffffffffffffffffffffffffffffffffffffffffffffffffffffff83818316178352505050506105f2565b50565b6104b5838383604051602401610433939291906108aa565b6040516020818303038152906040527fe0e9ad4f000000000000000000000000000000000000000000000000000000007bffffffffffffffffffffffffffffffffffffffffffffffffffffffff19166020820180517bffffffffffffffffffffffffffffffffffffffffffffffffffffffff83818316178352505050506105f2565b505050565b61055282826040516024016104d0929190610926565b6040516020818303038152906040527f9710a9d0000000000000000000000000000000000000000000000000000000007bffffffffffffffffffffffffffffffffffffffffffffffffffffffff19166020820180517bffffffffffffffffffffffffffffffffffffffffffffffffffffffff83818316178352505050506105f2565b5050565b6105ee828260405160240161056c9291906108ef565b6040516020818303038152906040527f4b5c4277000000000000000000000000000000000000000000000000000000007bffffffffffffffffffffffffffffffffffffffffffffffffffffffff19166020820180517bffffffffffffffffffffffffffffffffffffffffffffffffffffffff83818316178352505050506105f2565b5050565b60008151905060006a636f6e736f6c652e6c6f679050602083016000808483855afa5050505050565b82805461062790610a5f565b90600052602060002090601f0160209004810192826106495760008555610690565b82601f1061066257803560ff1916838001178555610690565b82800160010185558215610690579182015b8281111561068f578235825591602001919060010190610674565b5b50905061069d91906106a1565b5090565b5b808211156106ba5760008160009055506001016106a2565b5090565b60008083601f8401126106d057600080fd5b8235905067ffffffffffffffff8111156106e957600080fd5b60208301915083600182028301111561070157600080fd5b9250929050565b6000806020838503121561071b57600080fd5b600083013567ffffffffffffffff81111561073557600080fd5b610741858286016106be565b92509250509250929050565b600061075983836107e5565b905092915050565b61076a816109f0565b82525050565b600061077b82610966565b6107858185610989565b93508360208202850161079785610956565b8060005b858110156107d357848403895281516107b4858261074d565b94506107bf8361097c565b925060208a0199505060018101905061079b565b50829750879550505050505092915050565b60006107f082610971565b6107fa818561099a565b935061080a818560208601610a2c565b61081381610aef565b840191505092915050565b600061082982610971565b61083381856109ab565b9350610843818560208601610a2c565b61084c81610aef565b840191505092915050565b61086081610a22565b82525050565b600060208201905081810360008301526108808184610770565b905092915050565b600060208201905081810360008301526108a2818461081e565b905092915050565b600060608201905081810360008301526108c4818661081e565b90506108d36020830185610761565b81810360408301526108e5818461081e565b9050949350505050565b60006040820190508181036000830152610909818561081e565b9050818103602083015261091d818461081e565b90509392505050565b60006040820190508181036000830152610940818561081e565b905061094f6020830184610857565b9392505050565b6000819050602082019050919050565b600081519050919050565b600081519050919050565b6000602082019050919050565b600082825260208201905092915050565b600082825260208201905092915050565b600082825260208201905092915050565b60006109c782610a22565b91506109d283610a22565b9250828210156109e5576109e4610a91565b5b828203905092915050565b60006109fb82610a02565b9050919050565b600073ffffffffffffffffffffffffffffffffffffffff82169050919050565b6000819050919050565b60005b83811015610a4a578082015181840152602081019050610a2f565b83811115610a59576000848401525b50505050565b60006002820490506001821680610a7757607f821691505b60208210811415610a8b57610a8a610ac0565b5b50919050565b7f4e487b7100000000000000000000000000000000000000000000000000000000600052601160045260246000fd5b7f4e487b7100000000000000000000000000000000000000000000000000000000600052602260045260246000fd5b6000601f19601f830116905091905056fea2646970667358221220f8c44c3e35d385712051e1e2e81cc6e127baa70dd7be17534621eaebef0ede3a64736f6c6343000804003369276d206120636f6e74726163742c20616e6420616c6c204920646f207269676874206e6f772069732073617920746869732c2062757420736f6f6e2069276c6c20636f6c6c65637420616e6f6e796d6f75732077686973746c65626c6f77657220746970732e",
  "linkReferences": {},
  "deployedLinkReferences": {}
}